{
  "contractName": "Ticket",
  "abi": [
    {
      "constant": true,
      "inputs": [],
      "name": "ticketPrice",
      "outputs": [
        {
          "name": "",
          "type": "uint256"
        }
      ],
      "payable": false,
      "stateMutability": "view",
      "type": "function"
    },
    {
      "constant": true,
      "inputs": [],
      "name": "eventOrganizer",
      "outputs": [
        {
          "name": "",
          "type": "address"
        }
      ],
      "payable": false,
      "stateMutability": "view",
      "type": "function"
    },
    {
      "constant": true,
      "inputs": [],
      "name": "maxTickets",
      "outputs": [
        {
          "name": "",
          "type": "uint256"
        }
      ],
      "payable": false,
      "stateMutability": "view",
      "type": "function"
    },
    {
      "constant": true,
      "inputs": [],
      "name": "totalTickets",
      "outputs": [
        {
          "name": "",
          "type": "uint256"
        }
      ],
      "payable": false,
      "stateMutability": "view",
      "type": "function"
    },
    {
      "constant": true,
      "inputs": [
        {
          "name": "",
          "type": "uint256"
        }
      ],
      "name": "ticketOwners",
      "outputs": [
        {
          "name": "",
          "type": "address"
        }
      ],
      "payable": false,
      "stateMutability": "view",
      "type": "function"
    },
    {
      "inputs": [
        {
          "name": "_price",
          "type": "uint256"
        },
        {
          "name": "_maxTickets",
          "type": "uint256"
        }
      ],
      "payable": false,
      "stateMutability": "nonpayable",
      "type": "constructor"
    },
    {
      "constant": false,
      "inputs": [],
      "name": "mintTicket",
      "outputs": [],
      "payable": true,
      "stateMutability": "payable",
      "type": "function"
    },
    {
      "constant": false,
      "inputs": [],
      "name": "withdrawFunds",
      "outputs": [],
      "payable": false,
      "stateMutability": "nonpayable",
      "type": "function"
    }
  ],
  "bytecode": "0x608060405234801561001057600080fd5b5060405160408061060d8339810180604052604081101561003057600080fd5b810190808051906020019092919080519060200190929190505050816000819055508060028190555033600160006101000a81548173ffffffffffffffffffffffffffffffffffffffff021916908373ffffffffffffffffffffffffffffffffffffffff1602179055506000600381905550505061055a806100b36000396000f3fe60806040526004361061007d576000357c0100000000000000000000000000000000000000000000000000000000900480631209b1f61461008257806324600fc3146100ad578063573c80fa146100c45780637514d7cb146100ce5780639b89470314610125578063dd11247e14610150578063eb2dbcf61461017b575b600080fd5b34801561008e57600080fd5b506100976101f6565b6040518082815260200191505060405180910390f35b3480156100b957600080fd5b506100c26101fc565b005b6100cc61036f565b005b3480156100da57600080fd5b506100e36104c9565b604051808273ffffffffffffffffffffffffffffffffffffffff1673ffffffffffffffffffffffffffffffffffffffff16815260200191505060405180910390f35b34801561013157600080fd5b5061013a6104ef565b6040518082815260200191505060405180910390f35b34801561015c57600080fd5b506101656104f5565b6040518082815260200191505060405180910390f35b34801561018757600080fd5b506101b46004803603602081101561019e57600080fd5b81019080803590602001909291905050506104fb565b604051808273ffffffffffffffffffffffffffffffffffffffff1673ffffffffffffffffffffffffffffffffffffffff16815260200191505060405180910390f35b60005481565b600160009054906101000a900473ffffffffffffffffffffffffffffffffffffffff1673ffffffffffffffffffffffffffffffffffffffff163373ffffffffffffffffffffffffffffffffffffffff161415156102e7576040517f08c379a00000000000000000000000000000000000000000000000000000000081526004018080602001828103825260258152602001807f4f6e6c7920746865206f7267616e697a65722063616e2077697468647261772081526020017f66756e647300000000000000000000000000000000000000000000000000000081525060400191505060405180910390fd5b6000600160009054906101000a900473ffffffffffffffffffffffffffffffffffffffff1690508073ffffffffffffffffffffffffffffffffffffffff166108fc3073ffffffffffffffffffffffffffffffffffffffff16319081150290604051600060405180830381858888f1935050505015801561036b573d6000803e3d6000fd5b5050565b6002546003541015156103ea576040517f08c379a00000000000000000000000000000000000000000000000000000000081526004018080602001828103825260098152602001807f536f6c64206f757421000000000000000000000000000000000000000000000081525060200191505060405180910390fd5b60005434141515610463576040517f08c379a00000000000000000000000000000000000000000000000000000000081526004018080602001828103825260128152602001807f496e636f7272656374207061796d656e7421000000000000000000000000000081525060200191505060405180910390fd5b60006001600354019050336004600083815260200190815260200160002060006101000a81548173ffffffffffffffffffffffffffffffffffffffff021916908373ffffffffffffffffffffffffffffffffffffffff1602179055508060038190555050565b600160009054906101000a900473ffffffffffffffffffffffffffffffffffffffff1681565b60025481565b60035481565b60046020528060005260406000206000915054906101000a900473ffffffffffffffffffffffffffffffffffffffff168156fea165627a7a7230582027e8a3dedc73833467db63cd2b05d8428db538948e0975f88be92b7ecf88248d0029",
  "source": "// SPDX-License-Identifier: MIT\npragma solidity ^0.5.1;\n\ncontract Ticket {\n    uint256 public ticketPrice;\n    address public eventOrganizer;\n    uint256 public maxTickets;\n    uint256 public totalTickets;\n\n    mapping(uint256 => address) public ticketOwners;\n\n    constructor(uint256 _price, uint256 _maxTickets) public {\n        ticketPrice = _price;\n        maxTickets = _maxTickets;\n        eventOrganizer = msg.sender;\n        totalTickets = 0;\n    }\n\n    function mintTicket() public payable {\n        require(totalTickets < maxTickets, \"Sold out!\");\n        require(msg.value == ticketPrice, \"Incorrect payment!\");\n        \n        uint256 ticketId = totalTickets + 1;\n        ticketOwners[ticketId] = msg.sender;\n        totalTickets = ticketId;\n    }\n\n    function withdrawFunds() public {\n    require(msg.sender == eventOrganizer, \"Only the organizer can withdraw funds\");\n    address payable organizerPayable = address(uint160(eventOrganizer));\n    organizerPayable.transfer(address(this).balance);\n}\n\n}\n",
  "sourcePath": "/Users/danielapassos/Desktop/event-ticketing/contracts/Ticket.sol",
  "compiler": {
    "name": "solc",
    "version": "0.5.1+commit.c8a2cb62.Emscripten.clang"
  },
  "schemaVersion": "3.4.15",
  "updatedAt": "2023-08-22T20:06:32.418Z",
  "networkType": "ethereum",
  "devdoc": {
    "methods": {}
  },
  "userdoc": {
    "methods": {}
  }
}